{
  "transactions": [
    {
      "hash": "0x71dd80dbb3e81c3c118697a867bab0e84bd080e06b4a0baeefc8cf69eb69769c",
      "transactionType": "CALL",
      "contractName": null,
      "contractAddress": "0x715046bdd7f9914bdfdec0795182809c28ac4a0c",
      "function": "approve(address,uint256)",
      "arguments": [
        "0xcef0d7a219f98de961586D5e895d36b31BA89997",
        "100000000000000000000000"
      ],
      "transaction": {
        "from": "0xd114410e64de8e14af6b22db779e74c3fbcc5f0a",
        "to": "0x715046bdd7f9914bdfdec0795182809c28ac4a0c",
        "gas": "0xfa6c",
        "value": "0x0",
        "input": "0x095ea7b3000000000000000000000000cef0d7a219f98de961586d5e895d36b31ba8999700000000000000000000000000000000000000000000152d02c7e14af6800000",
        "nonce": "0x31",
        "chainId": "0x61"
      },
      "additionalContracts": [],
      "isFixedGasLimit": false
    },
    {
      "hash": "0xa837c9b735272a5c23721809b886c55511612cd92053565b19f50f20aad9ba9d",
      "transactionType": "CALL",
      "contractName": null,
      "contractAddress": "0xcef0d7a219f98de961586d5e895d36b31ba89997",
      "function": "deposit(uint256)",
      "arguments": [
        "100000000000000000000000"
      ],
      "transaction": {
        "from": "0xd114410e64de8e14af6b22db779e74c3fbcc5f0a",
        "to": "0xcef0d7a219f98de961586d5e895d36b31ba89997",
        "gas": "0x4683b",
        "value": "0x0",
        "input": "0xb6b55f2500000000000000000000000000000000000000000000152d02c7e14af6800000",
        "nonce": "0x32",
        "chainId": "0x61"
      },
      "additionalContracts": [],
      "isFixedGasLimit": false
    }
  ],
  "receipts": [
    {
      "status": "0x1",
      "cumulativeGasUsed": "0xb54e",
      "logs": [
        {
          "address": "0x715046bdd7f9914bdfdec0795182809c28ac4a0c",
          "topics": [
            "0x8c5be1e5ebec7d5bd14f71427d1e84f3dd0314c0f7b2291e5b200ac8c7c3b925",
            "0x000000000000000000000000d114410e64de8e14af6b22db779e74c3fbcc5f0a",
            "0x000000000000000000000000cef0d7a219f98de961586d5e895d36b31ba89997"
          ],
          "data": "0x00000000000000000000000000000000000000000000152d02c7e14af6800000",
          "blockHash": "0x8a9b19506953fe47e3d73a1ef6e8554027ac7bf921f8c60443a6c902604d7a1a",
          "blockNumber": "0x47a1102",
          "blockTimestamp": "0x6927ac87",
          "transactionHash": "0x71dd80dbb3e81c3c118697a867bab0e84bd080e06b4a0baeefc8cf69eb69769c",
          "transactionIndex": "0x0",
          "logIndex": "0x0",
          "removed": false
        }
      ],
      "logsBloom": "0x00000000000010010000000000000000000000000000000000000000000000000000020000000000000000000000000000000000000000000000000000220000000000000000000000000000000000000000000000000000020000000000000000800000000000000000000000000000000000000000000000000000000000000000000000000000000000000000000000000000000000000000000000000000020000000000000000000000000040000000000000000000000000000000000000000000000000000000000000040000000000000000000000000000000000000014000000000000000000000000000000000000000000000000000000000000",
      "type": "0x0",
      "transactionHash": "0x71dd80dbb3e81c3c118697a867bab0e84bd080e06b4a0baeefc8cf69eb69769c",
      "transactionIndex": "0x0",
      "blockHash": "0x8a9b19506953fe47e3d73a1ef6e8554027ac7bf921f8c60443a6c902604d7a1a",
      "blockNumber": "0x47a1102",
      "gasUsed": "0xb54e",
      "effectiveGasPrice": "0x7270e00",
      "from": "0xd114410e64de8e14af6b22db779e74c3fbcc5f0a",
      "to": "0x715046bdd7f9914bdfdec0795182809c28ac4a0c",
      "contractAddress": null
    },
    {
      "status": "0x1",
      "cumulativeGasUsed": "0x3b8bf",
      "logs": [
        {
          "address": "0x715046bdd7f9914bdfdec0795182809c28ac4a0c",
          "topics": [
            "0xddf252ad1be2c89b69c2b068fc378daa952ba7f163c4a11628f55a4df523b3ef",
            "0x000000000000000000000000d114410e64de8e14af6b22db779e74c3fbcc5f0a",
            "0x000000000000000000000000cef0d7a219f98de961586d5e895d36b31ba89997"
          ],
          "data": "0x00000000000000000000000000000000000000000000152d02c7e14af6800000",
          "blockHash": "0x8a9b19506953fe47e3d73a1ef6e8554027ac7bf921f8c60443a6c902604d7a1a",
          "blockNumber": "0x47a1102",
          "blockTimestamp": "0x6927ac87",
          "transactionHash": "0xa837c9b735272a5c23721809b886c55511612cd92053565b19f50f20aad9ba9d",
          "transactionIndex": "0x1",
          "logIndex": "0x1",
          "removed": false
        },
        {
          "address": "0xcef0d7a219f98de961586d5e895d36b31ba89997",
          "topics": [
            "0xb7cd4486a08dcd2bf7da217a07d1069da69db8ffb3518c7014d6e6d4d973a552",
            "0x000000000000000000000000d114410e64de8e14af6b22db779e74c3fbcc5f0a"
          ],
          "data": "0x00000000000000000000000000000000000000000000152d02c7e14af680000000000000000000000000000000000000000000000000152d02c7e14af6800000",
          "blockHash": "0x8a9b19506953fe47e3d73a1ef6e8554027ac7bf921f8c60443a6c902604d7a1a",
          "blockNumber": "0x47a1102",
          "blockTimestamp": "0x6927ac87",
          "transactionHash": "0xa837c9b735272a5c23721809b886c55511612cd92053565b19f50f20aad9ba9d",
          "transactionIndex": "0x1",
          "logIndex": "0x2",
          "removed": false
        }
      ],
      "logsBloom": "0x00020000000010010000000000000000000000000000000000000000000000000000020000000000000000000000000000000000000000000000000000020000000000000000002000000008000000000000000000000000020000000000000000800000000000000000000000000000000000000000000000000010000000000004000000000000000000000000000000000000000000000000000000000000000000000000000000000000000040000000100000000000000000000000000000000022000000000000000000040000000000000000000400000000000000000004000000000000000000000000000000000000000000000000000000000000",
      "type": "0x0",
      "transactionHash": "0xa837c9b735272a5c23721809b886c55511612cd92053565b19f50f20aad9ba9d",
      "transactionIndex": "0x1",
      "blockHash": "0x8a9b19506953fe47e3d73a1ef6e8554027ac7bf921f8c60443a6c902604d7a1a",
      "blockNumber": "0x47a1102",
      "gasUsed": "0x30371",
      "effectiveGasPrice": "0x7270e00",
      "from": "0xd114410e64de8e14af6b22db779e74c3fbcc5f0a",
      "to": "0xcef0d7a219f98de961586d5e895d36b31ba89997",
      "contractAddress": null
    }
  ],
  "libraries": [],
  "pending": [],
  "returns": {},
  "timestamp": 1764207752364,
  "chain": 97,
  "commit": "b6d1f1c"
}