{
  "transactions": [
    {
      "hash": "0x8fb3593fd6ecfdd1534181efc033995f77642310a75c371321e688366532e087",
      "transactionType": "CALL",
      "contractName": null,
      "contractAddress": "0x715046bdd7f9914bdfdec0795182809c28ac4a0c",
      "function": "approve(address,uint256)",
      "arguments": [
        "0xB921fE0670b59890FEB0ACE2E9595e59fFDb831c",
        "75000000000000000"
      ],
      "transaction": {
        "from": "0xd114410e64de8e14af6b22db779e74c3fbcc5f0a",
        "to": "0x715046bdd7f9914bdfdec0795182809c28ac4a0c",
        "gas": "0x10916",
        "value": "0x0",
        "input": "0x095ea7b3000000000000000000000000b921fe0670b59890feb0ace2e9595e59ffdb831c000000000000000000000000000000000000000000000000010a741a46278000",
        "nonce": "0x33",
        "chainId": "0x61"
      },
      "additionalContracts": [],
      "isFixedGasLimit": false
    },
    {
      "hash": "0xe78587baad2cf9dd8ef746582e7ff861591e07a4730781a70bbb19ac20f8e2bb",
      "transactionType": "CALL",
      "contractName": null,
      "contractAddress": "0xb921fe0670b59890feb0ace2e9595e59ffdb831c",
      "function": "createPolicy(address,string,uint256,uint256,uint256)",
      "arguments": [
        "0xD114410e64De8e14AF6B22Db779e74c3fBcc5f0A",
        "16794",
        "500000000000000000",
        "75000000000000000",
        "2592000"
      ],
      "transaction": {
        "from": "0xd114410e64de8e14af6b22db779e74c3fbcc5f0a",
        "to": "0xb921fe0670b59890feb0ace2e9595e59ffdb831c",
        "gas": "0x9311f",
        "value": "0x0",
        "input": "0x19705ee5000000000000000000000000d114410e64de8e14af6b22db779e74c3fbcc5f0a00000000000000000000000000000000000000000000000000000000000000a000000000000000000000000000000000000000000000000006f05b59d3b20000000000000000000000000000000000000000000000000000010a741a462780000000000000000000000000000000000000000000000000000000000000278d0000000000000000000000000000000000000000000000000000000000000000053136373934000000000000000000000000000000000000000000000000000000",
        "nonce": "0x34",
        "chainId": "0x61"
      },
      "additionalContracts": [],
      "isFixedGasLimit": false
    }
  ],
  "receipts": [
    {
      "status": "0x1",
      "cumulativeGasUsed": "0xb542",
      "logs": [
        {
          "address": "0x715046bdd7f9914bdfdec0795182809c28ac4a0c",
          "topics": [
            "0x8c5be1e5ebec7d5bd14f71427d1e84f3dd0314c0f7b2291e5b200ac8c7c3b925",
            "0x000000000000000000000000d114410e64de8e14af6b22db779e74c3fbcc5f0a",
            "0x000000000000000000000000b921fe0670b59890feb0ace2e9595e59ffdb831c"
          ],
          "data": "0x000000000000000000000000000000000000000000000000010a741a46278000",
          "blockHash": "0xf715ee5604c016fb4d98dd004df4a9a591f7aac39f6cce0f0f639905f1e4fd27",
          "blockNumber": "0x47a1de1",
          "blockTimestamp": "0x6927b256",
          "transactionHash": "0x8fb3593fd6ecfdd1534181efc033995f77642310a75c371321e688366532e087",
          "transactionIndex": "0x0",
          "logIndex": "0x0",
          "removed": false
        }
      ],
      "logsBloom": "0x00000000000010010000400000000000000000000000000000000000000000000000020000000000000000000400000000000000000000000000000000220000000000000000000000000000000000000000000000000000000000000000000000800000000000000000000000000000000000000000000000000000000000000000000000000000000000000000000000000000000000000000000000000000020000000000000000000000000000000000000000000000000000000800000000000000000000000000000000040000000000000000000000000000000000000010000000000000000000000000000000000000000000000000000000000000",
      "type": "0x0",
      "transactionHash": "0x8fb3593fd6ecfdd1534181efc033995f77642310a75c371321e688366532e087",
      "transactionIndex": "0x0",
      "blockHash": "0xf715ee5604c016fb4d98dd004df4a9a591f7aac39f6cce0f0f639905f1e4fd27",
      "blockNumber": "0x47a1de1",
      "gasUsed": "0xb542",
      "effectiveGasPrice": "0x7270e00",
      "from": "0xd114410e64de8e14af6b22db779e74c3fbcc5f0a",
      "to": "0x715046bdd7f9914bdfdec0795182809c28ac4a0c",
      "contractAddress": null
    },
    {
      "status": "0x1",
      "cumulativeGasUsed": "0x75ce1",
      "logs": [
        {
          "address": "0xb921fe0670b59890feb0ace2e9595e59ffdb831c",
          "topics": [
            "0xddf252ad1be2c89b69c2b068fc378daa952ba7f163c4a11628f55a4df523b3ef",
            "0x0000000000000000000000000000000000000000000000000000000000000000",
            "0x000000000000000000000000d114410e64de8e14af6b22db779e74c3fbcc5f0a",
            "0x0000000000000000000000000000000000000000000000000000000000000001"
          ],
          "data": "0x",
          "blockHash": "0xf715ee5604c016fb4d98dd004df4a9a591f7aac39f6cce0f0f639905f1e4fd27",
          "blockNumber": "0x47a1de1",
          "blockTimestamp": "0x6927b256",
          "transactionHash": "0xe78587baad2cf9dd8ef746582e7ff861591e07a4730781a70bbb19ac20f8e2bb",
          "transactionIndex": "0x1",
          "logIndex": "0x1",
          "removed": false
        },
        {
          "address": "0x715046bdd7f9914bdfdec0795182809c28ac4a0c",
          "topics": [
            "0xddf252ad1be2c89b69c2b068fc378daa952ba7f163c4a11628f55a4df523b3ef",
            "0x000000000000000000000000d114410e64de8e14af6b22db779e74c3fbcc5f0a",
            "0x000000000000000000000000b921fe0670b59890feb0ace2e9595e59ffdb831c"
          ],
          "data": "0x000000000000000000000000000000000000000000000000010a741a46278000",
          "blockHash": "0xf715ee5604c016fb4d98dd004df4a9a591f7aac39f6cce0f0f639905f1e4fd27",
          "blockNumber": "0x47a1de1",
          "blockTimestamp": "0x6927b256",
          "transactionHash": "0xe78587baad2cf9dd8ef746582e7ff861591e07a4730781a70bbb19ac20f8e2bb",
          "transactionIndex": "0x1",
          "logIndex": "0x2",
          "removed": false
        },
        {
          "address": "0x715046bdd7f9914bdfdec0795182809c28ac4a0c",
          "topics": [
            "0x8c5be1e5ebec7d5bd14f71427d1e84f3dd0314c0f7b2291e5b200ac8c7c3b925",
            "0x000000000000000000000000b921fe0670b59890feb0ace2e9595e59ffdb831c",
            "0x000000000000000000000000cef0d7a219f98de961586d5e895d36b31ba89997"
          ],
          "data": "0x000000000000000000000000000000000000000000000000010a741a46278000",
          "blockHash": "0xf715ee5604c016fb4d98dd004df4a9a591f7aac39f6cce0f0f639905f1e4fd27",
          "blockNumber": "0x47a1de1",
          "blockTimestamp": "0x6927b256",
          "transactionHash": "0xe78587baad2cf9dd8ef746582e7ff861591e07a4730781a70bbb19ac20f8e2bb",
          "transactionIndex": "0x1",
          "logIndex": "0x3",
          "removed": false
        },
        {
          "address": "0x715046bdd7f9914bdfdec0795182809c28ac4a0c",
          "topics": [
            "0xddf252ad1be2c89b69c2b068fc378daa952ba7f163c4a11628f55a4df523b3ef",
            "0x000000000000000000000000b921fe0670b59890feb0ace2e9595e59ffdb831c",
            "0x000000000000000000000000cef0d7a219f98de961586d5e895d36b31ba89997"
          ],
          "data": "0x000000000000000000000000000000000000000000000000010a741a46278000",
          "blockHash": "0xf715ee5604c016fb4d98dd004df4a9a591f7aac39f6cce0f0f639905f1e4fd27",
          "blockNumber": "0x47a1de1",
          "blockTimestamp": "0x6927b256",
          "transactionHash": "0xe78587baad2cf9dd8ef746582e7ff861591e07a4730781a70bbb19ac20f8e2bb",
          "transactionIndex": "0x1",
          "logIndex": "0x4",
          "removed": false
        },
        {
          "address": "0xcef0d7a219f98de961586d5e895d36b31ba89997",
          "topics": [
            "0x16d8dde3081dcc7b985217559bb5d076bb9cae69d817dd71b8a607cc05a27965",
            "0x0000000000000000000000000000000000000000000000000000000000000001"
          ],
          "data": "0x000000000000000000000000000000000000000000000000010a741a46278000",
          "blockHash": "0xf715ee5604c016fb4d98dd004df4a9a591f7aac39f6cce0f0f639905f1e4fd27",
          "blockNumber": "0x47a1de1",
          "blockTimestamp": "0x6927b256",
          "transactionHash": "0xe78587baad2cf9dd8ef746582e7ff861591e07a4730781a70bbb19ac20f8e2bb",
          "transactionIndex": "0x1",
          "logIndex": "0x5",
          "removed": false
        },
        {
          "address": "0xb921fe0670b59890feb0ace2e9595e59ffdb831c",
          "topics": [
            "0x20a028c8a90fc12848027879825b8bca09785fc6d1398435a3cd59435776b60b",
            "0x0000000000000000000000000000000000000000000000000000000000000001",
            "0x000000000000000000000000d114410e64de8e14af6b22db779e74c3fbcc5f0a"
          ],
          "data": "0x000000000000000000000000000000000000000000000000000000000000006000000000000000000000000000000000000000000000000006f05b59d3b20000000000000000000000000000000000000000000000000000010a741a4627800000000000000000000000000000000000000000000000000000000000000000053136373934000000000000000000000000000000000000000000000000000000",
          "blockHash": "0xf715ee5604c016fb4d98dd004df4a9a591f7aac39f6cce0f0f639905f1e4fd27",
          "blockNumber": "0x47a1de1",
          "blockTimestamp": "0x6927b256",
          "transactionHash": "0xe78587baad2cf9dd8ef746582e7ff861591e07a4730781a70bbb19ac20f8e2bb",
          "transactionIndex": "0x1",
          "logIndex": "0x6",
          "removed": false
        }
      ],
      "logsBloom": "0x00020000000010010000400000000000000000000000000000000000000000000000020000000000000000000400000000000000080000008000000000260000000000000000800000000008000000000000000000040000020000000000000000800000020000000000000000000800000000000000000000000010000000000000000000000000000000000000000000000000000000000000000000000000020040000000000000000000000040000000000000000000000000001800000000000022000000000000000040040000000002000000000400000000000060000014000000200000000000000000000000000000000000000000000000020000",
      "type": "0x0",
      "transactionHash": "0xe78587baad2cf9dd8ef746582e7ff861591e07a4730781a70bbb19ac20f8e2bb",
      "transactionIndex": "0x1",
      "blockHash": "0xf715ee5604c016fb4d98dd004df4a9a591f7aac39f6cce0f0f639905f1e4fd27",
      "blockNumber": "0x47a1de1",
      "gasUsed": "0x6a79f",
      "effectiveGasPrice": "0x7270e00",
      "from": "0xd114410e64de8e14af6b22db779e74c3fbcc5f0a",
      "to": "0xb921fe0670b59890feb0ace2e9595e59ffdb831c",
      "contractAddress": null
    }
  ],
  "libraries": [],
  "pending": [],
  "returns": {},
  "timestamp": 1764209238746,
  "chain": 97,
  "commit": "b6d1f1c"
}