{
  "transactions": [
    {
      "hash": "0x2887c6576bb471c495f9be125f6f3b5978ecd4e8eda6c9a9a5db6e4de440652f",
      "transactionType": "CALL",
      "contractName": null,
      "contractAddress": "0x715046bdd7f9914bdfdec0795182809c28ac4a0c",
      "function": "approve(address,uint256)",
      "arguments": [
        "0xB921fE0670b59890FEB0ACE2E9595e59fFDb831c",
        "30000000000000000"
      ],
      "transaction": {
        "from": "0xd114410e64de8e14af6b22db779e74c3fbcc5f0a",
        "to": "0x715046bdd7f9914bdfdec0795182809c28ac4a0c",
        "gas": "0x8edb",
        "value": "0x0",
        "input": "0x095ea7b3000000000000000000000000b921fe0670b59890feb0ace2e9595e59ffdb831c000000000000000000000000000000000000000000000000006a94d74f430000",
        "nonce": "0x36",
        "chainId": "0x61"
      },
      "additionalContracts": [],
      "isFixedGasLimit": false
    },
    {
      "hash": "0x54c0ab2491d68b561c311b242eed87478238b69633b2338e8fc88b4f1725ff52",
      "transactionType": "CALL",
      "contractName": null,
      "contractAddress": "0xb921fe0670b59890feb0ace2e9595e59ffdb831c",
      "function": "createPolicy(address,string,uint256,uint256,uint256)",
      "arguments": [
        "0xD114410e64De8e14AF6B22Db779e74c3fBcc5f0A",
        "16106",
        "200000000000000000",
        "30000000000000000",
        "2592000"
      ],
      "transaction": {
        "from": "0xd114410e64de8e14af6b22db779e74c3fbcc5f0a",
        "to": "0xb921fe0670b59890feb0ace2e9595e59ffdb831c",
        "gas": "0x7d2f4",
        "value": "0x0",
        "input": "0x19705ee5000000000000000000000000d114410e64de8e14af6b22db779e74c3fbcc5f0a00000000000000000000000000000000000000000000000000000000000000a000000000000000000000000000000000000000000000000002c68af0bb140000000000000000000000000000000000000000000000000000006a94d74f4300000000000000000000000000000000000000000000000000000000000000278d0000000000000000000000000000000000000000000000000000000000000000053136313036000000000000000000000000000000000000000000000000000000",
        "nonce": "0x37",
        "chainId": "0x61"
      },
      "additionalContracts": [],
      "isFixedGasLimit": false
    }
  ],
  "receipts": [
    {
      "status": "0x1",
      "cumulativeGasUsed": "0x676e",
      "logs": [
        {
          "address": "0x715046bdd7f9914bdfdec0795182809c28ac4a0c",
          "topics": [
            "0x8c5be1e5ebec7d5bd14f71427d1e84f3dd0314c0f7b2291e5b200ac8c7c3b925",
            "0x000000000000000000000000d114410e64de8e14af6b22db779e74c3fbcc5f0a",
            "0x000000000000000000000000b921fe0670b59890feb0ace2e9595e59ffdb831c"
          ],
          "data": "0x000000000000000000000000000000000000000000000000006a94d74f430000",
          "blockHash": "0xec56397367f475455b5403173a21b4fefbbdc0bb282f3a94c1d6cf75776a8ce1",
          "blockNumber": "0x47a2121",
          "blockTimestamp": "0x6927b3cc",
          "transactionHash": "0x2887c6576bb471c495f9be125f6f3b5978ecd4e8eda6c9a9a5db6e4de440652f",
          "transactionIndex": "0x0",
          "logIndex": "0x0",
          "removed": false
        }
      ],
      "logsBloom": "0x00000000000010010000400000000000000000000000000000000000000000000000020000000000000000000400000000000000000000000000000000220000000000000000000000000000000000000000000000000000000000000000000000800000000000000000000000000000000000000000000000000000000000000000000000000000000000000000000000000000000000000000000000000000020000000000000000000000000000000000000000000000000000000800000000000000000000000000000000040000000000000000000000000000000000000010000000000000000000000000000000000000000000000000000000000000",
      "type": "0x0",
      "transactionHash": "0x2887c6576bb471c495f9be125f6f3b5978ecd4e8eda6c9a9a5db6e4de440652f",
      "transactionIndex": "0x0",
      "blockHash": "0xec56397367f475455b5403173a21b4fefbbdc0bb282f3a94c1d6cf75776a8ce1",
      "blockNumber": "0x47a2121",
      "gasUsed": "0x676e",
      "effectiveGasPrice": "0x7270e00",
      "from": "0xd114410e64de8e14af6b22db779e74c3fbcc5f0a",
      "to": "0x715046bdd7f9914bdfdec0795182809c28ac4a0c",
      "contractAddress": null
    },
    {
      "status": "0x1",
      "cumulativeGasUsed": "0x5c0f9",
      "logs": [
        {
          "address": "0xb921fe0670b59890feb0ace2e9595e59ffdb831c",
          "topics": [
            "0xddf252ad1be2c89b69c2b068fc378daa952ba7f163c4a11628f55a4df523b3ef",
            "0x0000000000000000000000000000000000000000000000000000000000000000",
            "0x000000000000000000000000d114410e64de8e14af6b22db779e74c3fbcc5f0a",
            "0x0000000000000000000000000000000000000000000000000000000000000002"
          ],
          "data": "0x",
          "blockHash": "0xec56397367f475455b5403173a21b4fefbbdc0bb282f3a94c1d6cf75776a8ce1",
          "blockNumber": "0x47a2121",
          "blockTimestamp": "0x6927b3cc",
          "transactionHash": "0x54c0ab2491d68b561c311b242eed87478238b69633b2338e8fc88b4f1725ff52",
          "transactionIndex": "0x1",
          "logIndex": "0x1",
          "removed": false
        },
        {
          "address": "0x715046bdd7f9914bdfdec0795182809c28ac4a0c",
          "topics": [
            "0xddf252ad1be2c89b69c2b068fc378daa952ba7f163c4a11628f55a4df523b3ef",
            "0x000000000000000000000000d114410e64de8e14af6b22db779e74c3fbcc5f0a",
            "0x000000000000000000000000b921fe0670b59890feb0ace2e9595e59ffdb831c"
          ],
          "data": "0x000000000000000000000000000000000000000000000000006a94d74f430000",
          "blockHash": "0xec56397367f475455b5403173a21b4fefbbdc0bb282f3a94c1d6cf75776a8ce1",
          "blockNumber": "0x47a2121",
          "blockTimestamp": "0x6927b3cc",
          "transactionHash": "0x54c0ab2491d68b561c311b242eed87478238b69633b2338e8fc88b4f1725ff52",
          "transactionIndex": "0x1",
          "logIndex": "0x2",
          "removed": false
        },
        {
          "address": "0x715046bdd7f9914bdfdec0795182809c28ac4a0c",
          "topics": [
            "0x8c5be1e5ebec7d5bd14f71427d1e84f3dd0314c0f7b2291e5b200ac8c7c3b925",
            "0x000000000000000000000000b921fe0670b59890feb0ace2e9595e59ffdb831c",
            "0x000000000000000000000000cef0d7a219f98de961586d5e895d36b31ba89997"
          ],
          "data": "0x000000000000000000000000000000000000000000000000006a94d74f430000",
          "blockHash": "0xec56397367f475455b5403173a21b4fefbbdc0bb282f3a94c1d6cf75776a8ce1",
          "blockNumber": "0x47a2121",
          "blockTimestamp": "0x6927b3cc",
          "transactionHash": "0x54c0ab2491d68b561c311b242eed87478238b69633b2338e8fc88b4f1725ff52",
          "transactionIndex": "0x1",
          "logIndex": "0x3",
          "removed": false
        },
        {
          "address": "0x715046bdd7f9914bdfdec0795182809c28ac4a0c",
          "topics": [
            "0xddf252ad1be2c89b69c2b068fc378daa952ba7f163c4a11628f55a4df523b3ef",
            "0x000000000000000000000000b921fe0670b59890feb0ace2e9595e59ffdb831c",
            "0x000000000000000000000000cef0d7a219f98de961586d5e895d36b31ba89997"
          ],
          "data": "0x000000000000000000000000000000000000000000000000006a94d74f430000",
          "blockHash": "0xec56397367f475455b5403173a21b4fefbbdc0bb282f3a94c1d6cf75776a8ce1",
          "blockNumber": "0x47a2121",
          "blockTimestamp": "0x6927b3cc",
          "transactionHash": "0x54c0ab2491d68b561c311b242eed87478238b69633b2338e8fc88b4f1725ff52",
          "transactionIndex": "0x1",
          "logIndex": "0x4",
          "removed": false
        },
        {
          "address": "0xcef0d7a219f98de961586d5e895d36b31ba89997",
          "topics": [
            "0x16d8dde3081dcc7b985217559bb5d076bb9cae69d817dd71b8a607cc05a27965",
            "0x0000000000000000000000000000000000000000000000000000000000000002"
          ],
          "data": "0x000000000000000000000000000000000000000000000000006a94d74f430000",
          "blockHash": "0xec56397367f475455b5403173a21b4fefbbdc0bb282f3a94c1d6cf75776a8ce1",
          "blockNumber": "0x47a2121",
          "blockTimestamp": "0x6927b3cc",
          "transactionHash": "0x54c0ab2491d68b561c311b242eed87478238b69633b2338e8fc88b4f1725ff52",
          "transactionIndex": "0x1",
          "logIndex": "0x5",
          "removed": false
        },
        {
          "address": "0xb921fe0670b59890feb0ace2e9595e59ffdb831c",
          "topics": [
            "0x20a028c8a90fc12848027879825b8bca09785fc6d1398435a3cd59435776b60b",
            "0x0000000000000000000000000000000000000000000000000000000000000002",
            "0x000000000000000000000000d114410e64de8e14af6b22db779e74c3fbcc5f0a"
          ],
          "data": "0x000000000000000000000000000000000000000000000000000000000000006000000000000000000000000000000000000000000000000002c68af0bb140000000000000000000000000000000000000000000000000000006a94d74f43000000000000000000000000000000000000000000000000000000000000000000053136313036000000000000000000000000000000000000000000000000000000",
          "blockHash": "0xec56397367f475455b5403173a21b4fefbbdc0bb282f3a94c1d6cf75776a8ce1",
          "blockNumber": "0x47a2121",
          "blockTimestamp": "0x6927b3cc",
          "transactionHash": "0x54c0ab2491d68b561c311b242eed87478238b69633b2338e8fc88b4f1725ff52",
          "transactionIndex": "0x1",
          "logIndex": "0x6",
          "removed": false
        }
      ],
      "logsBloom": "0x04020000000010010000400000000000000000000000000000000000000000000000020000000000000000000400000000000000080000008000000000220000000000000000800000000008000000000000000000000000020000000000000000800000020000000000000000000800000000000000000000000010000000000000000000000000000000000000000000000000000000000000000000000000020040000000000000000100000040000000000000000000000000001800000000000022000000000000000040040000000002000000000400000000000020000014000000200000000000000000000000000000008000000000000000020000",
      "type": "0x0",
      "transactionHash": "0x54c0ab2491d68b561c311b242eed87478238b69633b2338e8fc88b4f1725ff52",
      "transactionIndex": "0x1",
      "blockHash": "0xec56397367f475455b5403173a21b4fefbbdc0bb282f3a94c1d6cf75776a8ce1",
      "blockNumber": "0x47a2121",
      "gasUsed": "0x5598b",
      "effectiveGasPrice": "0x7270e00",
      "from": "0xd114410e64de8e14af6b22db779e74c3fbcc5f0a",
      "to": "0xb921fe0670b59890feb0ace2e9595e59ffdb831c",
      "contractAddress": null
    }
  ],
  "libraries": [],
  "pending": [],
  "returns": {},
  "timestamp": 1764209615015,
  "chain": 97,
  "commit": "b6d1f1c"
}