{
  "transactions": [
    {
      "hash": "0xed27e5c7a8df1ec856a068d8796674f7bd3ac889ed5dfc436787b986c9db89d4",
      "transactionType": "CALL",
      "contractName": null,
      "contractAddress": "0xda917815c9ca76e35e778086ead18c339102f520",
      "function": "mint(address,uint256)",
      "arguments": [
        "0x1804c8AB1F12E6bbf3894d4083f33e07309d1f38",
        "100000000000000000000000"
      ],
      "transaction": {
        "from": "0xd114410e64de8e14af6b22db779e74c3fbcc5f0a",
        "to": "0xda917815c9ca76e35e778086ead18c339102f520",
        "gas": "0xc3fd",
        "value": "0x0",
        "input": "0x40c10f190000000000000000000000001804c8ab1f12e6bbf3894d4083f33e07309d1f3800000000000000000000000000000000000000000000152d02c7e14af6800000",
        "nonce": "0x4d",
        "chainId": "0x61"
      },
      "additionalContracts": [],
      "isFixedGasLimit": false
    },
    {
      "hash": "0x582a64c2760951908ff7a67beae35124ab85ce7cf567dfe0e63cd2e2a2db4d43",
      "transactionType": "CALL",
      "contractName": null,
      "contractAddress": "0xda917815c9ca76e35e778086ead18c339102f520",
      "function": "approve(address,uint256)",
      "arguments": [
        "0xcFD29824991a07AaB3335Dc5b8197f9Aca145009",
        "100000000000000000000000"
      ],
      "transaction": {
        "from": "0xd114410e64de8e14af6b22db779e74c3fbcc5f0a",
        "to": "0xda917815c9ca76e35e778086ead18c339102f520",
        "gas": "0xfa6c",
        "value": "0x0",
        "input": "0x095ea7b3000000000000000000000000cfd29824991a07aab3335dc5b8197f9aca14500900000000000000000000000000000000000000000000152d02c7e14af6800000",
        "nonce": "0x4e",
        "chainId": "0x61"
      },
      "additionalContracts": [],
      "isFixedGasLimit": false
    },
    {
      "hash": "0xb7711eb7b8fb85b2347c972bbe1d586ab245144aaa50ab1a02f6e41b4af7433b",
      "transactionType": "CALL",
      "contractName": null,
      "contractAddress": "0xcfd29824991a07aab3335dc5b8197f9aca145009",
      "function": "deposit(uint256)",
      "arguments": [
        "100000000000000000000000"
      ],
      "transaction": {
        "from": "0xd114410e64de8e14af6b22db779e74c3fbcc5f0a",
        "to": "0xcfd29824991a07aab3335dc5b8197f9aca145009",
        "gas": "0x1a45c",
        "value": "0x0",
        "input": "0xb6b55f2500000000000000000000000000000000000000000000152d02c7e14af6800000",
        "nonce": "0x4f",
        "chainId": "0x61"
      },
      "additionalContracts": [],
      "isFixedGasLimit": false
    }
  ],
  "receipts": [
    {
      "status": "0x1",
      "cumulativeGasUsed": "0x97bc3",
      "logs": [
        {
          "address": "0xda917815c9ca76e35e778086ead18c339102f520",
          "topics": [
            "0xddf252ad1be2c89b69c2b068fc378daa952ba7f163c4a11628f55a4df523b3ef",
            "0x0000000000000000000000000000000000000000000000000000000000000000",
            "0x0000000000000000000000001804c8ab1f12e6bbf3894d4083f33e07309d1f38"
          ],
          "data": "0x00000000000000000000000000000000000000000000152d02c7e14af6800000",
          "blockHash": "0x228250c8e81e9f8efc3250b58c0083337727134fe7a87ba543f0ee1778322501",
          "blockNumber": "0x47b0677",
          "blockTimestamp": "0x69281b20",
          "transactionHash": "0xed27e5c7a8df1ec856a068d8796674f7bd3ac889ed5dfc436787b986c9db89d4",
          "transactionIndex": "0x4",
          "logIndex": "0x4",
          "removed": false
        }
      ],
      "logsBloom": "0x00000000000000000000000000000000000000000000000000000000000000000000080000000000000000000010000000000000000000000000000000000000000000000000000000000008000000000000000000000000000000000000000000000000020000000001000000000800000000000000000000000010000000000000000000000000000004080000000000000000000000000000000000000000000000000000000000000000000000000000000000000000000000000000000000000002000004000000000000000000000000000000000000000000000020000000000000000000000000000000000000000000000000000000000000000000",
      "type": "0x0",
      "transactionHash": "0xed27e5c7a8df1ec856a068d8796674f7bd3ac889ed5dfc436787b986c9db89d4",
      "transactionIndex": "0x4",
      "blockHash": "0x228250c8e81e9f8efc3250b58c0083337727134fe7a87ba543f0ee1778322501",
      "blockNumber": "0x47b0677",
      "gasUsed": "0x8603",
      "effectiveGasPrice": "0x3b9aca00",
      "from": "0xd114410e64de8e14af6b22db779e74c3fbcc5f0a",
      "to": "0xda917815c9ca76e35e778086ead18c339102f520",
      "contractAddress": null
    },
    {
      "status": "0x1",
      "cumulativeGasUsed": "0xa3111",
      "logs": [
        {
          "address": "0xda917815c9ca76e35e778086ead18c339102f520",
          "topics": [
            "0x8c5be1e5ebec7d5bd14f71427d1e84f3dd0314c0f7b2291e5b200ac8c7c3b925",
            "0x000000000000000000000000d114410e64de8e14af6b22db779e74c3fbcc5f0a",
            "0x000000000000000000000000cfd29824991a07aab3335dc5b8197f9aca145009"
          ],
          "data": "0x00000000000000000000000000000000000000000000152d02c7e14af6800000",
          "blockHash": "0x228250c8e81e9f8efc3250b58c0083337727134fe7a87ba543f0ee1778322501",
          "blockNumber": "0x47b0677",
          "blockTimestamp": "0x69281b20",
          "transactionHash": "0x582a64c2760951908ff7a67beae35124ab85ce7cf567dfe0e63cd2e2a2db4d43",
          "transactionIndex": "0x5",
          "logIndex": "0x5",
          "removed": false
        }
      ],
      "logsBloom": "0x000000000000000000000000000000000000000000000000000000000000000000000a0000080000000000000010000000000000000000000000000000200000000000000001000000000000000000000000000000000000000000000000000000800000000000000000000000000000000000000000000000000000000000000000000000000000000000080000000000000000000000000000000000000000020000000000000000000000000000000000000000000000000000000000000000000000000000000000000000040000000000000000000000000000000000400010000000000000000000000000000000000000000000000000000000000000",
      "type": "0x0",
      "transactionHash": "0x582a64c2760951908ff7a67beae35124ab85ce7cf567dfe0e63cd2e2a2db4d43",
      "transactionIndex": "0x5",
      "blockHash": "0x228250c8e81e9f8efc3250b58c0083337727134fe7a87ba543f0ee1778322501",
      "blockNumber": "0x47b0677",
      "gasUsed": "0xb54e",
      "effectiveGasPrice": "0x3b9aca00",
      "from": "0xd114410e64de8e14af6b22db779e74c3fbcc5f0a",
      "to": "0xda917815c9ca76e35e778086ead18c339102f520",
      "contractAddress": null
    },
    {
      "status": "0x1",
      "cumulativeGasUsed": "0xb6167",
      "logs": [
        {
          "address": "0xda917815c9ca76e35e778086ead18c339102f520",
          "topics": [
            "0xddf252ad1be2c89b69c2b068fc378daa952ba7f163c4a11628f55a4df523b3ef",
            "0x000000000000000000000000d114410e64de8e14af6b22db779e74c3fbcc5f0a",
            "0x000000000000000000000000cfd29824991a07aab3335dc5b8197f9aca145009"
          ],
          "data": "0x00000000000000000000000000000000000000000000152d02c7e14af6800000",
          "blockHash": "0x228250c8e81e9f8efc3250b58c0083337727134fe7a87ba543f0ee1778322501",
          "blockNumber": "0x47b0677",
          "blockTimestamp": "0x69281b20",
          "transactionHash": "0xb7711eb7b8fb85b2347c972bbe1d586ab245144aaa50ab1a02f6e41b4af7433b",
          "transactionIndex": "0x6",
          "logIndex": "0x6",
          "removed": false
        },
        {
          "address": "0xcfd29824991a07aab3335dc5b8197f9aca145009",
          "topics": [
            "0xb7cd4486a08dcd2bf7da217a07d1069da69db8ffb3518c7014d6e6d4d973a552",
            "0x000000000000000000000000d114410e64de8e14af6b22db779e74c3fbcc5f0a"
          ],
          "data": "0x00000000000000000000000000000000000000000000152d02c7e14af680000000000000000000000000000000000000000000000000152d02c7e14af6800000",
          "blockHash": "0x228250c8e81e9f8efc3250b58c0083337727134fe7a87ba543f0ee1778322501",
          "blockNumber": "0x47b0677",
          "blockTimestamp": "0x69281b20",
          "transactionHash": "0xb7711eb7b8fb85b2347c972bbe1d586ab245144aaa50ab1a02f6e41b4af7433b",
          "transactionIndex": "0x6",
          "logIndex": "0x7",
          "removed": false
        }
      ],
      "logsBloom": "0x000000000004000000000000000000000000000000000000000000000000000000000a0000080000000000000010000000000000000000000000000000000000000000040001002000000008000000000000000000000000000000000000000000800000000000000000000000000000000000000000000000000010000000000004000000000000000000080000000000000000000000000000000000000000000000000000000001000000000000000000100000000000000000000000000000000002000000000000000000040000000000000000000000000000000000400000000000000000000000000000000000000000000000000000000000000000",
      "type": "0x0",
      "transactionHash": "0xb7711eb7b8fb85b2347c972bbe1d586ab245144aaa50ab1a02f6e41b4af7433b",
      "transactionIndex": "0x6",
      "blockHash": "0x228250c8e81e9f8efc3250b58c0083337727134fe7a87ba543f0ee1778322501",
      "blockNumber": "0x47b0677",
      "gasUsed": "0x13056",
      "effectiveGasPrice": "0x3b9aca00",
      "from": "0xd114410e64de8e14af6b22db779e74c3fbcc5f0a",
      "to": "0xcfd29824991a07aab3335dc5b8197f9aca145009",
      "contractAddress": null
    }
  ],
  "libraries": [],
  "pending": [],
  "returns": {},
  "timestamp": 1764236065058,
  "chain": 97,
  "commit": "998a9ac"
}