{
  "transactions": [
    {
      "hash": "0xe0a42439fc3d212b65da312d0d6b60d641d7f29ad8430d858e87eed07bd59e0a",
      "transactionType": "CALL",
      "contractName": null,
      "contractAddress": "0xda917815c9ca76e35e778086ead18c339102f520",
      "function": "mint(address,uint256)",
      "arguments": [
        "0x1804c8AB1F12E6bbf3894d4083f33e07309d1f38",
        "100000000000000000000000"
      ],
      "transaction": {
        "from": "0xd114410e64de8e14af6b22db779e74c3fbcc5f0a",
        "to": "0xda917815c9ca76e35e778086ead18c339102f520",
        "gas": "0x1155c",
        "value": "0x0",
        "input": "0x40c10f190000000000000000000000001804c8ab1f12e6bbf3894d4083f33e07309d1f3800000000000000000000000000000000000000000000152d02c7e14af6800000",
        "nonce": "0x4a",
        "chainId": "0x61"
      },
      "additionalContracts": [],
      "isFixedGasLimit": false
    },
    {
      "hash": "0x97ced4a84f02d41ec56143506c3572e36ddffa036b45b7d95d8741c84b2c1ef4",
      "transactionType": "CALL",
      "contractName": null,
      "contractAddress": "0xda917815c9ca76e35e778086ead18c339102f520",
      "function": "approve(address,uint256)",
      "arguments": [
        "0xcFD29824991a07AaB3335Dc5b8197f9Aca145009",
        "100000000000000000000000"
      ],
      "transaction": {
        "from": "0xd114410e64de8e14af6b22db779e74c3fbcc5f0a",
        "to": "0xda917815c9ca76e35e778086ead18c339102f520",
        "gas": "0xfa6c",
        "value": "0x0",
        "input": "0x095ea7b3000000000000000000000000cfd29824991a07aab3335dc5b8197f9aca14500900000000000000000000000000000000000000000000152d02c7e14af6800000",
        "nonce": "0x4b",
        "chainId": "0x61"
      },
      "additionalContracts": [],
      "isFixedGasLimit": false
    },
    {
      "hash": "0x32c5ded78521081f4c25b6fc09c423a4ccdc00cfad9f5606faa9194bf27447b3",
      "transactionType": "CALL",
      "contractName": null,
      "contractAddress": "0xcfd29824991a07aab3335dc5b8197f9aca145009",
      "function": "deposit(uint256)",
      "arguments": [
        "100000000000000000000000"
      ],
      "transaction": {
        "from": "0xd114410e64de8e14af6b22db779e74c3fbcc5f0a",
        "to": "0xcfd29824991a07aab3335dc5b8197f9aca145009",
        "gas": "0x4681b",
        "value": "0x0",
        "input": "0xb6b55f2500000000000000000000000000000000000000000000152d02c7e14af6800000",
        "nonce": "0x4c",
        "chainId": "0x61"
      },
      "additionalContracts": [],
      "isFixedGasLimit": false
    }
  ],
  "receipts": [
    {
      "status": "0x1",
      "cumulativeGasUsed": "0x4455f",
      "logs": [
        {
          "address": "0xda917815c9ca76e35e778086ead18c339102f520",
          "topics": [
            "0xddf252ad1be2c89b69c2b068fc378daa952ba7f163c4a11628f55a4df523b3ef",
            "0x0000000000000000000000000000000000000000000000000000000000000000",
            "0x0000000000000000000000001804c8ab1f12e6bbf3894d4083f33e07309d1f38"
          ],
          "data": "0x00000000000000000000000000000000000000000000152d02c7e14af6800000",
          "blockHash": "0xb57e3fcc1cf2a49aaf99abbb0c1514b65011877568e72cf7dc05872e2a850101",
          "blockNumber": "0x47ae511",
          "blockTimestamp": "0x69280c11",
          "transactionHash": "0xe0a42439fc3d212b65da312d0d6b60d641d7f29ad8430d858e87eed07bd59e0a",
          "transactionIndex": "0x1",
          "logIndex": "0x1",
          "removed": false
        }
      ],
      "logsBloom": "0x00000000000000000000000000000000000000000000000000000000000000000000080000000000000000000010000000000000000000000000000000000000000000000000000000000008000000000000000000000000000000000000000000000000020000000001000000000800000000000000000000000010000000000000000000000000000004080000000000000000000000000000000000000000000000000000000000000000000000000000000000000000000000000000000000000002000004000000000000000000000000000000000000000000000020000000000000000000000000000000000000000000000000000000000000000000",
      "type": "0x0",
      "transactionHash": "0xe0a42439fc3d212b65da312d0d6b60d641d7f29ad8430d858e87eed07bd59e0a",
      "transactionIndex": "0x1",
      "blockHash": "0xb57e3fcc1cf2a49aaf99abbb0c1514b65011877568e72cf7dc05872e2a850101",
      "blockNumber": "0x47ae511",
      "gasUsed": "0xc8cf",
      "effectiveGasPrice": "0x7270e00",
      "from": "0xd114410e64de8e14af6b22db779e74c3fbcc5f0a",
      "to": "0xda917815c9ca76e35e778086ead18c339102f520",
      "contractAddress": null
    },
    {
      "status": "0x1",
      "cumulativeGasUsed": "0x4faad",
      "logs": [
        {
          "address": "0xda917815c9ca76e35e778086ead18c339102f520",
          "topics": [
            "0x8c5be1e5ebec7d5bd14f71427d1e84f3dd0314c0f7b2291e5b200ac8c7c3b925",
            "0x000000000000000000000000d114410e64de8e14af6b22db779e74c3fbcc5f0a",
            "0x000000000000000000000000cfd29824991a07aab3335dc5b8197f9aca145009"
          ],
          "data": "0x00000000000000000000000000000000000000000000152d02c7e14af6800000",
          "blockHash": "0xb57e3fcc1cf2a49aaf99abbb0c1514b65011877568e72cf7dc05872e2a850101",
          "blockNumber": "0x47ae511",
          "blockTimestamp": "0x69280c11",
          "transactionHash": "0x97ced4a84f02d41ec56143506c3572e36ddffa036b45b7d95d8741c84b2c1ef4",
          "transactionIndex": "0x2",
          "logIndex": "0x2",
          "removed": false
        }
      ],
      "logsBloom": "0x000000000000000000000000000000000000000000000000000000000000000000000a0000080000000000000010000000000000000000000000000000200000000000000001000000000000000000000000000000000000000000000000000000800000000000000000000000000000000000000000000000000000000000000000000000000000000000080000000000000000000000000000000000000000020000000000000000000000000000000000000000000000000000000000000000000000000000000000000000040000000000000000000000000000000000400010000000000000000000000000000000000000000000000000000000000000",
      "type": "0x0",
      "transactionHash": "0x97ced4a84f02d41ec56143506c3572e36ddffa036b45b7d95d8741c84b2c1ef4",
      "transactionIndex": "0x2",
      "blockHash": "0xb57e3fcc1cf2a49aaf99abbb0c1514b65011877568e72cf7dc05872e2a850101",
      "blockNumber": "0x47ae511",
      "gasUsed": "0xb54e",
      "effectiveGasPrice": "0x7270e00",
      "from": "0xd114410e64de8e14af6b22db779e74c3fbcc5f0a",
      "to": "0xda917815c9ca76e35e778086ead18c339102f520",
      "contractAddress": null
    },
    {
      "status": "0x1",
      "cumulativeGasUsed": "0x7fe08",
      "logs": [
        {
          "address": "0xda917815c9ca76e35e778086ead18c339102f520",
          "topics": [
            "0xddf252ad1be2c89b69c2b068fc378daa952ba7f163c4a11628f55a4df523b3ef",
            "0x000000000000000000000000d114410e64de8e14af6b22db779e74c3fbcc5f0a",
            "0x000000000000000000000000cfd29824991a07aab3335dc5b8197f9aca145009"
          ],
          "data": "0x00000000000000000000000000000000000000000000152d02c7e14af6800000",
          "blockHash": "0xb57e3fcc1cf2a49aaf99abbb0c1514b65011877568e72cf7dc05872e2a850101",
          "blockNumber": "0x47ae511",
          "blockTimestamp": "0x69280c11",
          "transactionHash": "0x32c5ded78521081f4c25b6fc09c423a4ccdc00cfad9f5606faa9194bf27447b3",
          "transactionIndex": "0x3",
          "logIndex": "0x3",
          "removed": false
        },
        {
          "address": "0xcfd29824991a07aab3335dc5b8197f9aca145009",
          "topics": [
            "0xb7cd4486a08dcd2bf7da217a07d1069da69db8ffb3518c7014d6e6d4d973a552",
            "0x000000000000000000000000d114410e64de8e14af6b22db779e74c3fbcc5f0a"
          ],
          "data": "0x00000000000000000000000000000000000000000000152d02c7e14af680000000000000000000000000000000000000000000000000152d02c7e14af6800000",
          "blockHash": "0xb57e3fcc1cf2a49aaf99abbb0c1514b65011877568e72cf7dc05872e2a850101",
          "blockNumber": "0x47ae511",
          "blockTimestamp": "0x69280c11",
          "transactionHash": "0x32c5ded78521081f4c25b6fc09c423a4ccdc00cfad9f5606faa9194bf27447b3",
          "transactionIndex": "0x3",
          "logIndex": "0x4",
          "removed": false
        }
      ],
      "logsBloom": "0x000000000004000000000000000000000000000000000000000000000000000000000a0000080000000000000010000000000000000000000000000000000000000000040001002000000008000000000000000000000000000000000000000000800000000000000000000000000000000000000000000000000010000000000004000000000000000000080000000000000000000000000000000000000000000000000000000001000000000000000000100000000000000000000000000000000002000000000000000000040000000000000000000000000000000000400000000000000000000000000000000000000000000000000000000000000000",
      "type": "0x0",
      "transactionHash": "0x32c5ded78521081f4c25b6fc09c423a4ccdc00cfad9f5606faa9194bf27447b3",
      "transactionIndex": "0x3",
      "blockHash": "0xb57e3fcc1cf2a49aaf99abbb0c1514b65011877568e72cf7dc05872e2a850101",
      "blockNumber": "0x47ae511",
      "gasUsed": "0x3035b",
      "effectiveGasPrice": "0x7270e00",
      "from": "0xd114410e64de8e14af6b22db779e74c3fbcc5f0a",
      "to": "0xcfd29824991a07aab3335dc5b8197f9aca145009",
      "contractAddress": null
    }
  ],
  "libraries": [],
  "pending": [],
  "returns": {},
  "timestamp": 1764232210046,
  "chain": 97,
  "commit": "998a9ac"
}