{
  "transactions": [
    {
      "hash": "0x480733e5253526d4fa7dc66f66948df82cc80004794829b5d0c39255eb59c061",
      "transactionType": "CALL",
      "contractName": null,
      "contractAddress": "0x715046bdd7f9914bdfdec0795182809c28ac4a0c",
      "function": "approve(address,uint256)",
      "arguments": [
        "0xB921fE0670b59890FEB0ACE2E9595e59fFDb831c",
        "115792089237316195423570985008687907853269984665640564039457584007913129639935"
      ],
      "transaction": {
        "from": "0xd114410e64de8e14af6b22db779e74c3fbcc5f0a",
        "to": "0x715046bdd7f9914bdfdec0795182809c28ac4a0c",
        "gas": "0xfbfa",
        "value": "0x0",
        "input": "0x095ea7b3000000000000000000000000b921fe0670b59890feb0ace2e9595e59ffdb831cffffffffffffffffffffffffffffffffffffffffffffffffffffffffffffffff",
        "nonce": "0x38",
        "chainId": "0x61"
      },
      "additionalContracts": [],
      "isFixedGasLimit": false
    }
  ],
  "receipts": [
    {
      "status": "0x1",
      "cumulativeGasUsed": "0xb66e",
      "logs": [
        {
          "address": "0x715046bdd7f9914bdfdec0795182809c28ac4a0c",
          "topics": [
            "0x8c5be1e5ebec7d5bd14f71427d1e84f3dd0314c0f7b2291e5b200ac8c7c3b925",
            "0x000000000000000000000000d114410e64de8e14af6b22db779e74c3fbcc5f0a",
            "0x000000000000000000000000b921fe0670b59890feb0ace2e9595e59ffdb831c"
          ],
          "data": "0xffffffffffffffffffffffffffffffffffffffffffffffffffffffffffffffff",
          "blockHash": "0xa3e4bfc256ea30995ddaf5324c8b48ce5680ecae368fd082156525afdb168056",
          "blockNumber": "0x47a24e2",
          "blockTimestamp": "0x6927b57d",
          "transactionHash": "0x480733e5253526d4fa7dc66f66948df82cc80004794829b5d0c39255eb59c061",
          "transactionIndex": "0x0",
          "logIndex": "0x0",
          "removed": false
        }
      ],
      "logsBloom": "0x00000000000010010000400000000000000000000000000000000000000000000000020000000000000000000400000000000000000000000000000000220000000000000000000000000000000000000000000000000000000000000000000000800000000000000000000000000000000000000000000000000000000000000000000000000000000000000000000000000000000000000000000000000000020000000000000000000000000000000000000000000000000000000800000000000000000000000000000000040000000000000000000000000000000000000010000000000000000000000000000000000000000000000000000000000000",
      "type": "0x0",
      "transactionHash": "0x480733e5253526d4fa7dc66f66948df82cc80004794829b5d0c39255eb59c061",
      "transactionIndex": "0x0",
      "blockHash": "0xa3e4bfc256ea30995ddaf5324c8b48ce5680ecae368fd082156525afdb168056",
      "blockNumber": "0x47a24e2",
      "gasUsed": "0xb66e",
      "effectiveGasPrice": "0x7270e00",
      "from": "0xd114410e64de8e14af6b22db779e74c3fbcc5f0a",
      "to": "0x715046bdd7f9914bdfdec0795182809c28ac4a0c",
      "contractAddress": null
    }
  ],
  "libraries": [],
  "pending": [],
  "returns": {},
  "timestamp": 1764210048480,
  "chain": 97,
  "commit": "b6d1f1c"
}